{
    "contractName": "Node",
    "abi": [
        {
            "inputs": [
                {
                    "internalType": "address",
                    "name": "defaultPublicContractAddress",
                    "type": "address"
                }
            ],
            "stateMutability": "nonpayable",
            "type": "constructor"
        },
        {
            "inputs": [
                {
                    "internalType": "address",
                    "name": "secretOwner",
                    "type": "address"
                }
            ],
            "name": "acceptInvitation",
            "outputs": [],
            "stateMutability": "nonpayable",
            "type": "function"
        },
        {
            "inputs": [
                {
                    "internalType": "string[]",
                    "name": "myShares",
                    "type": "string[]"
                }
            ],
            "name": "addMyShares",
            "outputs": [],
            "stateMutability": "nonpayable",
            "type": "function"
        },
        {
            "inputs": [
                {
                    "internalType": "address payable",
                    "name": "shareHolder",
                    "type": "address"
                }
            ],
            "name": "addTemporaryShareHolders",
            "outputs": [],
            "stateMutability": "nonpayable",
            "type": "function"
        },
        {
            "inputs": [],
            "name": "checkAcceptance",
            "outputs": [
                {
                    "internalType": "bool",
                    "name": "",
                    "type": "bool"
                }
            ],
            "stateMutability": "nonpayable",
            "type": "function"
        },
        {
            "inputs": [],
            "name": "checkRequestsForBeAHolder",
            "outputs": [
                {
                    "internalType": "address[]",
                    "name": "",
                    "type": "address[]"
                }
            ],
            "stateMutability": "view",
            "type": "function"
        },
        {
            "inputs": [],
            "name": "checkRequestsForShare",
            "outputs": [
                {
                    "internalType": "address[]",
                    "name": "",
                    "type": "address[]"
                }
            ],
            "stateMutability": "view",
            "type": "function"
        },
        {
            "inputs": [],
            "name": "cleanReleaseAcceptedShareHolders",
            "outputs": [],
            "stateMutability": "nonpayable",
            "type": "function"
        },
        {
            "inputs": [
                {
                    "internalType": "string",
                    "name": "tempOtp",
                    "type": "string"
                }
            ],
            "name": "compareOtpHash",
            "outputs": [
                {
                    "internalType": "bool",
                    "name": "",
                    "type": "bool"
                }
            ],
            "stateMutability": "view",
            "type": "function"
        },
        {
            "inputs": [
                {
                    "internalType": "address",
                    "name": "secretOwnerAddress",
                    "type": "address"
                }
            ],
            "name": "deleteSecretOwnerFromList",
            "outputs": [],
            "stateMutability": "nonpayable",
            "type": "function"
        },
        {
            "inputs": [
                {
                    "internalType": "string",
                    "name": "email",
                    "type": "string"
                },
                {
                    "internalType": "string",
                    "name": "vault",
                    "type": "string"
                }
            ],
            "name": "distribute",
            "outputs": [],
            "stateMutability": "nonpayable",
            "type": "function"
        },
        {
            "inputs": [
                {
                    "internalType": "address",
                    "name": "publicAddress",
                    "type": "address"
                }
            ],
            "name": "getContractAddressOfPublicAddress",
            "outputs": [
                {
                    "internalType": "address",
                    "name": "",
                    "type": "address"
                }
            ],
            "stateMutability": "view",
            "type": "function"
        },
        {
            "inputs": [],
            "name": "getEmailAddress",
            "outputs": [
                {
                    "internalType": "string",
                    "name": "",
                    "type": "string"
                }
            ],
            "stateMutability": "view",
            "type": "function"
        },
        {
            "inputs": [
                {
                    "internalType": "string",
                    "name": "name",
                    "type": "string"
                }
            ],
            "name": "getEmailOfUser",
            "outputs": [
                {
                    "internalType": "string",
                    "name": "",
                    "type": "string"
                }
            ],
            "stateMutability": "view",
            "type": "function"
        },
        {
            "inputs": [],
            "name": "getMyShares",
            "outputs": [
                {
                    "internalType": "string[]",
                    "name": "",
                    "type": "string[]"
                }
            ],
            "stateMutability": "view",
            "type": "function"
        },
        {
            "inputs": [],
            "name": "getMyState",
            "outputs": [
                {
                    "internalType": "string",
                    "name": "",
                    "type": "string"
                }
            ],
            "stateMutability": "view",
            "type": "function"
        },
        {
            "inputs": [],
            "name": "getOtp",
            "outputs": [
                {
                    "internalType": "string",
                    "name": "",
                    "type": "string"
                }
            ],
            "stateMutability": "view",
            "type": "function"
        },
        {
            "inputs": [],
            "name": "getRejectedShareHolders",
            "outputs": [
                {
                    "internalType": "address[]",
                    "name": "",
                    "type": "address[]"
                }
            ],
            "stateMutability": "view",
            "type": "function"
        },
        {
            "inputs": [],
            "name": "getRequestedShareHolders",
            "outputs": [
                {
                    "internalType": "address[]",
                    "name": "",
                    "type": "address[]"
                }
            ],
            "stateMutability": "view",
            "type": "function"
        },
        {
            "inputs": [],
            "name": "getShareHolders",
            "outputs": [
                {
                    "internalType": "address[]",
                    "name": "",
                    "type": "address[]"
                }
            ],
            "stateMutability": "view",
            "type": "function"
        },
        {
            "inputs": [],
            "name": "getUserName",
            "outputs": [
                {
                    "internalType": "string",
                    "name": "",
                    "type": "string"
                }
            ],
            "stateMutability": "view",
            "type": "function"
        },
        {
            "inputs": [],
            "name": "isRegistered",
            "outputs": [
                {
                    "internalType": "bool",
                    "name": "",
                    "type": "bool"
                }
            ],
            "stateMutability": "view",
            "type": "function"
        },
        {
            "inputs": [
                {
                    "internalType": "string",
                    "name": "tempUserName",
                    "type": "string"
                }
            ],
            "name": "isUserNameExist",
            "outputs": [
                {
                    "internalType": "bool",
                    "name": "",
                    "type": "bool"
                }
            ],
            "stateMutability": "view",
            "type": "function"
        },
        {
            "inputs": [],
            "name": "makingHolderRequests",
            "outputs": [],
            "stateMutability": "nonpayable",
            "type": "function"
        },
        {
            "inputs": [],
            "name": "myState",
            "outputs": [
                {
                    "internalType": "string",
                    "name": "",
                    "type": "string"
                }
            ],
            "stateMutability": "view",
            "type": "function"
        },
        {
            "inputs": [],
            "name": "refreshHolderLists",
            "outputs": [],
            "stateMutability": "nonpayable",
            "type": "function"
        },
        {
            "inputs": [],
            "name": "refreshState",
            "outputs": [],
            "stateMutability": "nonpayable",
            "type": "function"
        },
        {
            "inputs": [],
            "name": "regenerate",
            "outputs": [
                {
                    "internalType": "string[]",
                    "name": "",
                    "type": "string[]"
                }
            ],
            "stateMutability": "view",
            "type": "function"
        },
        {
            "inputs": [
                {
                    "internalType": "string",
                    "name": "name",
                    "type": "string"
                }
            ],
            "name": "registerToPublicContract",
            "outputs": [],
            "stateMutability": "nonpayable",
            "type": "function"
        },
        {
            "inputs": [
                {
                    "internalType": "address",
                    "name": "secretOwner",
                    "type": "address"
                }
            ],
            "name": "rejectInvitation",
            "outputs": [],
            "stateMutability": "nonpayable",
            "type": "function"
        },
        {
            "inputs": [
                {
                    "internalType": "address",
                    "name": "secretOwnerAddress",
                    "type": "address"
                }
            ],
            "name": "releaseSecret",
            "outputs": [],
            "stateMutability": "nonpayable",
            "type": "function"
        },
        {
            "inputs": [
                {
                    "internalType": "uint256",
                    "name": "index",
                    "type": "uint256"
                }
            ],
            "name": "remove",
            "outputs": [],
            "stateMutability": "nonpayable",
            "type": "function"
        },
        {
            "inputs": [
                {
                    "internalType": "address payable",
                    "name": "shareHolder",
                    "type": "address"
                }
            ],
            "name": "removeShareHolders",
            "outputs": [],
            "stateMutability": "nonpayable",
            "type": "function"
        },
        {
            "inputs": [
                {
                    "internalType": "string",
                    "name": "name",
                    "type": "string"
                },
                {
                    "internalType": "bytes32",
                    "name": "msgh1",
                    "type": "bytes32"
                },
                {
                    "internalType": "uint8",
                    "name": "v",
                    "type": "uint8"
                },
                {
                    "internalType": "bytes32",
                    "name": "r",
                    "type": "bytes32"
                },
                {
                    "internalType": "bytes32",
                    "name": "s",
                    "type": "bytes32"
                },
                {
                    "internalType": "bytes32",
                    "name": "msgh2",
                    "type": "bytes32"
                }
            ],
            "name": "requestSharesFromHolders",
            "outputs": [],
            "stateMutability": "nonpayable",
            "type": "function"
        },
        {
            "inputs": [
                {
                    "internalType": "string",
                    "name": "name",
                    "type": "string"
                },
                {
                    "internalType": "bytes32",
                    "name": "msgh1",
                    "type": "bytes32"
                },
                {
                    "internalType": "uint8",
                    "name": "v",
                    "type": "uint8"
                },
                {
                    "internalType": "bytes32",
                    "name": "r",
                    "type": "bytes32"
                },
                {
                    "internalType": "bytes32",
                    "name": "s",
                    "type": "bytes32"
                },
                {
                    "internalType": "bytes32",
                    "name": "msgh2",
                    "type": "bytes32"
                }
            ],
            "name": "requestVaultHashOfSecretOwner",
            "outputs": [
                {
                    "internalType": "string",
                    "name": "",
                    "type": "string"
                }
            ],
            "stateMutability": "view",
            "type": "function"
        },
        {
            "inputs": [],
            "name": "returnMyVaultHash",
            "outputs": [
                {
                    "internalType": "string",
                    "name": "",
                    "type": "string"
                }
            ],
            "stateMutability": "view",
            "type": "function"
        },
        {
            "inputs": [
                {
                    "internalType": "string",
                    "name": "share",
                    "type": "string"
                }
            ],
            "name": "saveToRegeneratedShares",
            "outputs": [],
            "stateMutability": "nonpayable",
            "type": "function"
        },
        {
            "inputs": [
                {
                    "internalType": "address",
                    "name": "shareHolder",
                    "type": "address"
                }
            ],
            "name": "saveToReleaseAcceptedShareHolders",
            "outputs": [],
            "stateMutability": "nonpayable",
            "type": "function"
        },
        {
            "inputs": [
                {
                    "internalType": "string",
                    "name": "email",
                    "type": "string"
                }
            ],
            "name": "setEmail",
            "outputs": [],
            "stateMutability": "nonpayable",
            "type": "function"
        },
        {
            "inputs": [
                {
                    "internalType": "string",
                    "name": "vault",
                    "type": "string"
                }
            ],
            "name": "setEncryptedVault",
            "outputs": [],
            "stateMutability": "nonpayable",
            "type": "function"
        },
        {
            "inputs": [
                {
                    "internalType": "address",
                    "name": "requestingParty",
                    "type": "address"
                }
            ],
            "name": "setRequester",
            "outputs": [],
            "stateMutability": "nonpayable",
            "type": "function"
        },
        {
            "inputs": [
                {
                    "internalType": "address",
                    "name": "ownerAddress",
                    "type": "address"
                },
                {
                    "internalType": "string",
                    "name": "sharedString",
                    "type": "string"
                }
            ],
            "name": "takeTheSecretFromTheOwner",
            "outputs": [],
            "stateMutability": "nonpayable",
            "type": "function"
        }
    ],
    "bytecode": "60e06040523480156200001157600080fd5b506040516200355938038062003559833981016040819052620000349162000083565b336080526001600160a01b03811660c0523060a05260408051808201909152600c81526b1393d11157d0d4915055115160a21b6020820152600a906200007b90826200015a565b505062000226565b6000602082840312156200009657600080fd5b81516001600160a01b0381168114620000ae57600080fd5b9392505050565b634e487b7160e01b600052604160045260246000fd5b600181811c90821680620000e057607f821691505b6020821081036200010157634e487b7160e01b600052602260045260246000fd5b50919050565b601f8211156200015557600081815260208120601f850160051c81016020861015620001305750805b601f850160051c820191505b8181101562000151578281556001016200013c565b5050505b505050565b81516001600160401b03811115620001765762000176620000b5565b6200018e81620001878454620000cb565b8462000107565b602080601f831160018114620001c65760008415620001ad5750858301515b600019600386901b1c1916600185901b17855562000151565b600085815260208120601f198616915b82811015620001f757888601518255948401946001909101908401620001d6565b5085821015620002165787850151600019600388901b60f8161c191681555b5050505050600190811b01905550565b60805160a05160c0516131b3620003a660003960008181610558015281816106ab015281816106f601528181610a8601528181610bf301528181610cab01528181610ee00152818161156301528181611701015281816117cd0152818161193201528181611bd501528181611e2c01528181611eba01528181611f8f0152818161231a015261249301526000611fe00152600081816104f80152818161062c015281816106800152818161077f0152818161087d01528181610b5001528181610bc801528181610c7d01528181610e4901528181610f7b0152818161106c0152818161129201528181611404015281816114580152818161150f01528181611676015281816116ca0152818161176e0152818161184c015281816118a7015281816118fb0152818161196e015281816119c301528181611a8001528181611c0401528181611d1201528181611f3b01528181611fbe01528181612206015281816122e6015281816123bd015281816124c2015261253c01526131b36000f3fe608060405234801561001057600080fd5b50600436106102525760003560e01c806357a4607911610146578063b9657d13116100c3578063d65ec85511610087578063d65ec855146104a5578063d849e94f146104b8578063dab0177e146104c0578063dbe4418f146104c8578063e4c3daf7146104d0578063ecd63043146104e357600080fd5b8063b9657d1314610451578063c069796514610464578063c0befa5314610477578063c4382fa61461048a578063c692f7381461049257600080fd5b80639018c8181161010a5780639018c818146103e5578063983080e5146103f8578063a0cd9ce814610423578063aa8f307514610436578063b90202831461044957600080fd5b806357a46079146103b257806358ce3740146103ba5780638477d9f3146103c25780638b5f6b61146103ca5780638bf1799f146103dd57600080fd5b8063227a30c5116101d4578063375881de11610198578063375881de1461035e5780633e83fe36146103715780634a9ae94a146103795780634cc822151461038c57806350e781911461039f57600080fd5b8063227a30c51461031557806322cc81551461032857806324164bc914610330578063282b065a146103385780632d6858121461034b57600080fd5b806312958f1c1161021b57806312958f1c146102c857806317377f68146102dd5780631965a285146102f257806320a2f73514610305578063223668441461030d57600080fd5b806252c63214610257578063026412c614610275578063042c1c58146102985780630d2baaa1146102ad5780630f64dd1b146102b5575b600080fd5b61025f6104eb565b60405161026c9190612678565b60405180910390f35b61028861028336600461278a565b6105d9565b604051901515815260200161026c565b6102ab6102a636600461278a565b61060f565b005b61025f61061f565b6102886102c336600461278a565b6106dc565b6102d0610772565b60405161026c9190612817565b6102e561084c565b60405161026c919061282a565b6102ab6103003660046128a1565b610991565b61025f610a0b565b610288610a6c565b6102ab6103233660046128a1565b610b01565b6102ab610b45565b6102ab610e3e565b6102ab61034636600461278a565b610e94565b6102d06103593660046128be565b610ea0565b6102ab61036c3660046128a1565b610f70565b6102e561105f565b6102ab610387366004612939565b611177565b6102ab61039a366004612989565b6111d8565b6102ab6103ad3660046128a1565b611287565b6102d061135c565b6102d061144b565b61025f6114a2565b6102d06103d836600461278a565b611502565b6102d06115dd565b6102ab6103f33660046128a1565b61166b565b61040b6104063660046128a1565b611761565b6040516001600160a01b03909116815260200161026c565b6102ab6104313660046129c6565b611841565b6102ab6104443660046128a1565b61189c565b6102d0611961565b6102ab61045f3660046128a1565b6119b8565b6102ab610472366004612a77565b611a75565b6102ab6104853660046128a1565b611d07565b6102d0611f21565b6102ab6104a036600461278a565b611f30565b6102ab6104b336600461278a565b612049565b6102ab6120a9565b6102ab6121fb565b61025f61238c565b6102ab6104de3660046128be565b612458565b61028861252f565b6060336001600160a01b037f0000000000000000000000000000000000000000000000000000000000000000161461053e5760405162461bcd60e51b815260040161053590612ad1565b60405180910390fd5b60405163316208d160e21b81526000906001600160a01b037f0000000000000000000000000000000000000000000000000000000000000000169063c58823449061058e90600890600401612b08565b600060405180830381865afa1580156105ab573d6000803e3d6000fd5b505050506040513d6000823e601f3d908101601f191682016040526105d39190810190612b4c565b91505090565b6000600b6040516105ea9190612c20565b604051809103902082805190602001200361060757506001919050565b506000919050565b600d61061b8282612cdc565b5050565b6060336001600160a01b037f000000000000000000000000000000000000000000000000000000000000000016146106695760405162461bcd60e51b815260040161053590612ad1565b6040516399f8b09f60e01b81526001600160a01b037f0000000000000000000000000000000000000000000000000000000000000000811660048301526000917f0000000000000000000000000000000000000000000000000000000000000000909116906399f8b09f9060240161058e565b604051630d85d83960e01b81526000906001600160a01b037f00000000000000000000000000000000000000000000000000000000000000001690630d85d8399061072b908590600401612817565b602060405180830381865afa158015610748573d6000803e3d6000fd5b505050506040513d601f19601f8201168201806040525081019061076c9190612d9c565b92915050565b6060336001600160a01b037f000000000000000000000000000000000000000000000000000000000000000016146107bc5760405162461bcd60e51b815260040161053590612ad1565b600080546107c990612be6565b80601f01602080910402602001604051908101604052809291908181526020018280546107f590612be6565b80156108425780601f1061081757610100808354040283529160200191610842565b820191906000526020600020905b81548152906001019060200180831161082557829003601f168201915b5050505050905090565b6060610856610a6c565b6108725760405162461bcd60e51b815260040161053590612dbe565b336001600160a01b037f000000000000000000000000000000000000000000000000000000000000000016146108ba5760405162461bcd60e51b815260040161053590612ad1565b6009805480602002602001604051908101604052809291908181526020016000905b828210156109885783829060005260206000200180546108fb90612be6565b80601f016020809104026020016040519081016040528092919081815260200182805461092790612be6565b80156109745780601f1061094957610100808354040283529160200191610974565b820191906000526020600020905b81548152906001019060200180831161095757829003601f168201915b5050505050815260200190600101906108dc565b50505050905090565b610999610a6c565b6109b55760405162461bcd60e51b815260040161053590612dbe565b600380546001810182556000919091527fc2575a0e9e593c00f959f8c92f12db2869c3395a3b0502d05e2516446f71f85b0180546001600160a01b0319166001600160a01b038316179055610a086120a9565b50565b6060600480548060200260200160405190810160405280929190818152602001828054801561084257602002820191906000526020600020905b81546001600160a01b03168152600190910190602001808311610a45575050505050905090565b604051630d85d83960e01b81526000906001600160a01b037f00000000000000000000000000000000000000000000000000000000000000001690630d85d83990610abb908490600401612e83565b602060405180830381865afa158015610ad8573d6000803e3d6000fd5b505050506040513d601f19601f82011682018060405250810190610afc9190612d9c565b905090565b610b09610a6c565b610b255760405162461bcd60e51b815260040161053590612dbe565b600e80546001600160a01b0383166001600160a01b031990911617905550565b336001600160a01b037f00000000000000000000000000000000000000000000000000000000000000001614610b8d5760405162461bcd60e51b815260040161053590612ad1565b610b95610a6c565b610bb15760405162461bcd60e51b815260040161053590612dbe565b60405163d71e80e360e01b81526001600160a01b037f0000000000000000000000000000000000000000000000000000000000000000811660048301526000917f00000000000000000000000000000000000000000000000000000000000000009091169063d71e80e3906024016000604051808303816000875af1158015610c3e573d6000803e3d6000fd5b505050506040513d6000823e601f3d908101601f19168201604052610c669190810190612b4c565b604051637568708f60e01b81526001600160a01b037f0000000000000000000000000000000000000000000000000000000000000000811660048301529192506000917f00000000000000000000000000000000000000000000000000000000000000001690637568708f906024016000604051808303816000875af1158015610cf4573d6000803e3d6000fd5b505050506040513d6000823e601f3d908101601f19168201604052610d1c9190810190612b4c565b905060005b8251811015610dab576000838281518110610d3e57610d3e612e96565b6020908102919091010151600280546001810182556000919091527f405787fa12a823e0f2b7631cc41b3ba8828b3321ca811111fa75cd3aa3bb5ace0180546001600160a01b0319166001600160a01b039092169190911790555080610da381612ec2565b915050610d21565b5060005b8151811015610e39576000828281518110610dcc57610dcc612e96565b6020908102919091010151600480546001810182556000919091527f8a35acfbc15ff81a39ae7d344fd709f28e8600b4aa8c65c6b64bfe7fe36bd19b0180546001600160a01b0319166001600160a01b039092169190911790555080610e3181612ec2565b915050610daf565b505050565b336001600160a01b037f00000000000000000000000000000000000000000000000000000000000000001614610e865760405162461bcd60e51b815260040161053590612ad1565b610e9260036000612598565b565b600c61061b8282612cdc565b6060610eaa610a6c565b610ec65760405162461bcd60e51b815260040161053590612dbe565b6040516380e2412d60e01b81526000906001600160a01b037f000000000000000000000000000000000000000000000000000000000000000016906380e2412d90610f1f908b908b908b908b908b908b90600401612edb565b600060405180830381865afa158015610f3c573d6000803e3d6000fd5b505050506040513d6000823e601f3d908101601f19168201604052610f649190810190612f1a565b98975050505050505050565b336001600160a01b037f00000000000000000000000000000000000000000000000000000000000000001614610fb85760405162461bcd60e51b815260040161053590612ad1565b610fc0610a6c565b610fdc5760405162461bcd60e51b815260040161053590612dbe565b60005b60085481101561061b57816001600160a01b03166008828154811061100657611006612e96565b6000918252602090912001546001600160a01b03160361104d576008818154811061103357611033612e96565b600091825260209091200180546001600160a01b03191690555b8061105781612ec2565b915050610fdf565b6060336001600160a01b037f000000000000000000000000000000000000000000000000000000000000000016146110a95760405162461bcd60e51b815260040161053590612ad1565b6005805480602002602001604051908101604052809291908181526020016000905b828210156109885783829060005260206000200180546110ea90612be6565b80601f016020809104026020016040519081016040528092919081815260200182805461111690612be6565b80156111635780601f1061113857610100808354040283529160200191611163565b820191906000526020600020905b81548152906001019060200180831161114657829003601f168201915b5050505050815260200190600101906110cb565b60088054600181019091557ff3f7a9fe364faab93b216da50a3214154f22a0a2b415b23a84c8169e8b636ee30180546001600160a01b0319166001600160a01b0384169081179091556000908152600760205260409020610e398282612cdc565b600180546111e7908290612f91565b815481106111f7576111f7612e96565b600091825260209091200154600180546001600160a01b03909216918390811061122357611223612e96565b9060005260206000200160006101000a8154816001600160a01b0302191690836001600160a01b03160217905550600180548061126257611262612fa4565b600082815260209020810160001990810180546001600160a01b031916905501905550565b336001600160a01b037f000000000000000000000000000000000000000000000000000000000000000016146112cf5760405162461bcd60e51b815260040161053590612ad1565b6112d7610a6c565b6112f35760405162461bcd60e51b815260040161053590612dbe565b6000805b60015481101561135257826001600160a01b03166001828154811061131e5761131e612e96565b6000918252602090912001546001600160a01b03160361134057809150611352565b8061134a81612ec2565b9150506112f7565b5061061b816111d8565b6060611366610a6c565b6113825760405162461bcd60e51b815260040161053590612dbe565b604080518082018252601081526f52454144595f544f5f52454c4541534560801b602090910152517fff6fbdbfdfaf95010da0cd5844afc0c36a5cc2fc12216c55cb5930ffe90709d9906113d890600a90612c20565b60405180910390200361143857600e546001600160a01b03163314806114265750336001600160a01b037f000000000000000000000000000000000000000000000000000000000000000016145b1561143857600d80546107c990612be6565b5060408051602081019091526000815290565b6060336001600160a01b037f000000000000000000000000000000000000000000000000000000000000000016146114955760405162461bcd60e51b815260040161053590612ad1565b600a80546107c990612be6565b60606002805480602002602001604051908101604052809291908181526020018280548015610842576020028201919060005260206000209081546001600160a01b03168152600190910190602001808311610a45575050505050905090565b6060336001600160a01b037f0000000000000000000000000000000000000000000000000000000000000000161461154c5760405162461bcd60e51b815260040161053590612ad1565b60405163067e37f760e41b81526001600160a01b037f000000000000000000000000000000000000000000000000000000000000000016906367e37f7090611598908590600401612817565b600060405180830381865afa1580156115b5573d6000803e3d6000fd5b505050506040513d6000823e601f3d908101601f1916820160405261076c9190810190612f1a565b600a80546115ea90612be6565b80601f016020809104026020016040519081016040528092919081815260200182805461161690612be6565b80156116635780601f1061163857610100808354040283529160200191611663565b820191906000526020600020905b81548152906001019060200180831161164657829003601f168201915b505050505081565b336001600160a01b037f000000000000000000000000000000000000000000000000000000000000000016146116b35760405162461bcd60e51b815260040161053590612ad1565b60405163bc9d627160e01b81526001600160a01b037f0000000000000000000000000000000000000000000000000000000000000000811660048301528281166024830152600160448301527f0000000000000000000000000000000000000000000000000000000000000000169063bc9d6271906064015b600060405180830381600087803b15801561174657600080fd5b505af115801561175a573d6000803e3d6000fd5b5050505050565b6000336001600160a01b037f000000000000000000000000000000000000000000000000000000000000000016146117ab5760405162461bcd60e51b815260040161053590612ad1565b60405163a5311bcf60e01b81526001600160a01b0383811660048301526000917f00000000000000000000000000000000000000000000000000000000000000009091169063a5311bcf90602401602060405180830381865afa158015611816573d6000803e3d6000fd5b505050506040513d601f19601f8201168201806040525081019061183a9190612fba565b9392505050565b336001600160a01b037f000000000000000000000000000000000000000000000000000000000000000016146118895760405162461bcd60e51b815260040161053590612ad1565b805161061b9060059060208401906125b6565b336001600160a01b037f000000000000000000000000000000000000000000000000000000000000000016146118e45760405162461bcd60e51b815260040161053590612ad1565b60405163bc9d627160e01b81526001600160a01b037f0000000000000000000000000000000000000000000000000000000000000000811660048301528281166024830152600060448301527f0000000000000000000000000000000000000000000000000000000000000000169063bc9d62719060640161172c565b6060336001600160a01b037f000000000000000000000000000000000000000000000000000000000000000016146119ab5760405162461bcd60e51b815260040161053590612ad1565b600b80546107c990612be6565b336001600160a01b037f00000000000000000000000000000000000000000000000000000000000000001614611a005760405162461bcd60e51b815260040161053590612ad1565b611a08610a6c565b611a245760405162461bcd60e51b815260040161053590612dbe565b6001805480820182556000919091527fb10e2d527612073b26eecdfd717e6a320cf44b4afac2b0732d9fcbe2b7fa0cf60180546001600160a01b0319166001600160a01b0392909216919091179055565b336001600160a01b037f00000000000000000000000000000000000000000000000000000000000000001614611abd5760405162461bcd60e51b815260040161053590612ad1565b611ac5610a6c565b611ae15760405162461bcd60e51b815260040161053590612dbe565b611aea82610e94565b611af38161060f565b611afb610b45565b611b03610e3e565b6002546005541115611b575760405162461bcd60e51b815260206004820152601a60248201527f4e6f7420656e6f75676820736861726520686f6c6465727321210000000000006044820152606401610535565b60025460055411611cd15760005b600554811015611ccf5760058181548110611b8257611b82612e96565b906000526020600020016006600060028481548110611ba357611ba3612e96565b60009182526020808320909101546001600160a01b03168352820192909252604001902090611bd29082612fd7565b507f00000000000000000000000000000000000000000000000000000000000000006001600160a01b031663cc2f22f17f000000000000000000000000000000000000000000000000000000000000000060028481548110611c3657611c36612e96565b600091825260209091200154600580546001600160a01b039092169186908110611c6257611c62612e96565b906000526020600020016040518463ffffffff1660e01b8152600401611c8a939291906130aa565b600060405180830381600087803b158015611ca457600080fd5b505af1158015611cb8573d6000803e3d6000fd5b505050508080611cc790612ec2565b915050611b65565b505b60408051808201909152601281527114d210549154d7d11254d51492509555115160721b6020820152600a90610e399082612cdc565b336001600160a01b037f00000000000000000000000000000000000000000000000000000000000000001614611d4f5760405162461bcd60e51b815260040161053590612ad1565b611d57610a6c565b611d735760405162461bcd60e51b815260040161053590612dbe565b6001600160a01b03811660009081526007602052604081208054611d9690612be6565b80601f0160208091040260200160405190810160405280929190818152602001828054611dc290612be6565b8015611e0f5780601f10611de457610100808354040283529160200191611e0f565b820191906000526020600020905b815481529060010190602001808311611df257829003601f168201915b5050604051637cbfc58f60e01b8152939450506001600160a01b037f00000000000000000000000000000000000000000000000000000000000000001692637cbfc58f9250611e659150859085906004016130d6565b600060405180830381600087803b158015611e7f57600080fd5b505af1158015611e93573d6000803e3d6000fd5b505060405163c6244a2760e01b81526001600160a01b0385811660048301523360248301527f000000000000000000000000000000000000000000000000000000000000000016925063c6244a279150604401600060405180830381600087803b158015611f0057600080fd5b505af1158015611f14573d6000803e3d6000fd5b5050505061061b82610f70565b6060600c80546107c990612be6565b336001600160a01b037f00000000000000000000000000000000000000000000000000000000000000001614611f785760405162461bcd60e51b815260040161053590612ad1565b604051637915c06960e01b81526001600160a01b037f00000000000000000000000000000000000000000000000000000000000000001690637915c069906120089084907f0000000000000000000000000000000000000000000000000000000000000000907f0000000000000000000000000000000000000000000000000000000000000000906004016130fa565b600060405180830381600087803b15801561202257600080fd5b505af1158015612036573d6000803e3d6000fd5b50505050806000908161061b9190612cdc565b612051610a6c565b61206d5760405162461bcd60e51b815260040161053590612dbe565b600980546001810182556000919091527f6e1540171b6c0c960b71a7020d9f60077f6af931a8bbf590da0223dacf75c7af0161061b8282612cdc565b604080518082018252601581527414d21054915213d311115497d49154555154d51151605a1b602090910152517f9e94733b26be02ee3e0ea61af564047d6d456d0e534cdf9c106b11f05a6b44469061210490600a90612c20565b6040518091039020036121585761211961252f565b156121585760408051808201909152601481527314d21054915213d311115497d050d0d15415115160621b6020820152600a906121569082612cdc565b505b604080518082018252601281527114d210549154d7d11254d51492509555115160721b602090910152517fbffa318594bbd03e7e8c900f2024636ff2a7c182aabad15a571db7417a2485b3906121b090600a90612c20565b604051809103902003610e9257600354600211610e925760408051808201909152601081526f52454144595f544f5f52454c4541534560801b6020820152600a90610a089082612cdc565b336001600160a01b037f000000000000000000000000000000000000000000000000000000000000000016146122435760405162461bcd60e51b815260040161053590612ad1565b61224b610a6c565b6122675760405162461bcd60e51b815260040161053590612dbe565b60408051808201909152601581527414d21054915213d311115497d49154555154d51151605a1b6020820152600a906122a09082612cdc565b5060005b600154811015610a08576000600182815481106122c3576122c3612e96565b600091825260209091200154604051636e8548bb60e01b81526001600160a01b037f0000000000000000000000000000000000000000000000000000000000000000811660048301529182166024820181905292507f000000000000000000000000000000000000000000000000000000000000000090911690636e8548bb90604401600060405180830381600087803b15801561236057600080fd5b505af1158015612374573d6000803e3d6000fd5b5050505050808061238490612ec2565b9150506122a4565b6060612396610a6c565b6123b25760405162461bcd60e51b815260040161053590612dbe565b336001600160a01b037f000000000000000000000000000000000000000000000000000000000000000016146123fa5760405162461bcd60e51b815260040161053590612ad1565b6001805480602002602001604051908101604052809291908181526020018280548015610842576020028201919060005260206000209081546001600160a01b03168152600190910190602001808311610a45575050505050905090565b612460610a6c565b61247c5760405162461bcd60e51b815260040161053590612dbe565b604051632b6d2f7560e11b81526001600160a01b037f000000000000000000000000000000000000000000000000000000000000000016906356da5eea906124f49089907f0000000000000000000000000000000000000000000000000000000000000000908a908a908a908a908a9060040161312d565b600060405180830381600087803b15801561250e57600080fd5b505af1158015612522573d6000803e3d6000fd5b505050505b505050505050565b6000336001600160a01b037f000000000000000000000000000000000000000000000000000000000000000016146125795760405162461bcd60e51b815260040161053590612ad1565b612581610b45565b600154600254106125925750600190565b50600090565b5080546000825590600052602060002090810190610a08919061260c565b8280548282559060005260206000209081019282156125fc579160200282015b828111156125fc57825182906125ec9082612cdc565b50916020019190600101906125d6565b50612608929150612621565b5090565b5b80821115612608576000815560010161260d565b80821115612608576000612635828261263e565b50600101612621565b50805461264a90612be6565b6000825580601f1061265a575050565b601f016020900490600052602060002090810190610a08919061260c565b6020808252825182820181905260009190848201906040850190845b818110156126b95783516001600160a01b031683529284019291840191600101612694565b50909695505050505050565b634e487b7160e01b600052604160045260246000fd5b604051601f8201601f1916810167ffffffffffffffff81118282101715612704576127046126c5565b604052919050565b600067ffffffffffffffff821115612726576127266126c5565b50601f01601f191660200190565b600082601f83011261274557600080fd5b81356127586127538261270c565b6126db565b81815284602083860101111561276d57600080fd5b816020850160208301376000918101602001919091529392505050565b60006020828403121561279c57600080fd5b813567ffffffffffffffff8111156127b357600080fd5b6127bf84828501612734565b949350505050565b60005b838110156127e25781810151838201526020016127ca565b50506000910152565b600081518084526128038160208601602086016127c7565b601f01601f19169290920160200192915050565b60208152600061183a60208301846127eb565b6000602080830181845280855180835260408601915060408160051b870101925083870160005b8281101561287f57603f1988860301845261286d8583516127eb565b94509285019290850190600101612851565b5092979650505050505050565b6001600160a01b0381168114610a0857600080fd5b6000602082840312156128b357600080fd5b813561183a8161288c565b60008060008060008060c087890312156128d757600080fd5b863567ffffffffffffffff8111156128ee57600080fd5b6128fa89828a01612734565b96505060208701359450604087013560ff8116811461291857600080fd5b959894975094956060810135955060808101359460a0909101359350915050565b6000806040838503121561294c57600080fd5b82356129578161288c565b9150602083013567ffffffffffffffff81111561297357600080fd5b61297f85828601612734565b9150509250929050565b60006020828403121561299b57600080fd5b5035919050565b600067ffffffffffffffff8211156129bc576129bc6126c5565b5060051b60200190565b600060208083850312156129d957600080fd5b823567ffffffffffffffff808211156129f157600080fd5b818501915085601f830112612a0557600080fd5b8135612a13612753826129a2565b81815260059190911b83018401908481019088831115612a3257600080fd5b8585015b83811015612a6a57803585811115612a4e5760008081fd5b612a5c8b89838a0101612734565b845250918601918601612a36565b5098975050505050505050565b60008060408385031215612a8a57600080fd5b823567ffffffffffffffff80821115612aa257600080fd5b612aae86838701612734565b93506020850135915080821115612ac457600080fd5b5061297f85828601612734565b6020808252601c908201527f4f6e6c79206f776e657220686173207468652070726976696c65676500000000604082015260600190565b6020808252825482820181905260008481528281209092916040850190845b818110156126b95783546001600160a01b031683526001938401939285019201612b27565b60006020808385031215612b5f57600080fd5b825167ffffffffffffffff811115612b7657600080fd5b8301601f81018513612b8757600080fd5b8051612b95612753826129a2565b81815260059190911b82018301908381019087831115612bb457600080fd5b928401925b82841015612bdb578351612bcc8161288c565b82529284019290840190612bb9565b979650505050505050565b600181811c90821680612bfa57607f821691505b602082108103612c1a57634e487b7160e01b600052602260045260246000fd5b50919050565b6000808354612c2e81612be6565b60018281168015612c465760018114612c5b57612c8a565b60ff1984168752821515830287019450612c8a565b8760005260208060002060005b85811015612c815781548a820152908401908201612c68565b50505082870194505b50929695505050505050565b601f821115610e3957600081815260208120601f850160051c81016020861015612cbd5750805b601f850160051c820191505b8181101561252757828155600101612cc9565b815167ffffffffffffffff811115612cf657612cf66126c5565b612d0a81612d048454612be6565b84612c96565b602080601f831160018114612d3f5760008415612d275750858301515b600019600386901b1c1916600185901b178555612527565b600085815260208120601f198616915b82811015612d6e57888601518255948401946001909101908401612d4f565b5085821015612d8c5787850151600019600388901b60f8161c191681555b5050505050600190811b01905550565b600060208284031215612dae57600080fd5b8151801515811461183a57600080fd5b60208082526028908201527f4f776e65722068617320746f20726567697374657220746f207075626c69632060408201526718dbdb9d1c9858dd60c21b606082015260800190565b60008154612e1381612be6565b808552602060018381168015612e305760018114612e4a57612e78565b60ff1985168884015283151560051b880183019550612e78565b866000528260002060005b85811015612e705781548a8201860152908301908401612e55565b890184019650505b505050505092915050565b60208152600061183a6020830184612e06565b634e487b7160e01b600052603260045260246000fd5b634e487b7160e01b600052601160045260246000fd5b600060018201612ed457612ed4612eac565b5060010190565b60c081526000612eee60c08301896127eb565b60208301979097525060ff9490941660408501526060840192909252608083015260a090910152919050565b600060208284031215612f2c57600080fd5b815167ffffffffffffffff811115612f4357600080fd5b8201601f81018413612f5457600080fd5b8051612f626127538261270c565b818152856020838501011115612f7757600080fd5b612f888260208301602086016127c7565b95945050505050565b8181038181111561076c5761076c612eac565b634e487b7160e01b600052603160045260246000fd5b600060208284031215612fcc57600080fd5b815161183a8161288c565b818103612fe2575050565b612fec8254612be6565b67ffffffffffffffff811115613004576130046126c5565b61301281612d048454612be6565b6000601f821160018114613046576000831561302e5750848201545b600019600385901b1c1916600184901b17845561175a565b600085815260209020601f19841690600086815260209020845b838110156130805782860154825560019586019590910190602001613060565b5085831015612d8c5793015460001960f8600387901b161c19169092555050600190811b01905550565b6001600160a01b03848116825283166020820152606060408201819052600090612f8890830184612e06565b6001600160a01b03831681526040602082018190526000906127bf908301846127eb565b60608152600061310d60608301866127eb565b6001600160a01b0394851660208401529290931660409091015292915050565b60e08152600061314060e083018a6127eb565b6001600160a01b0398909816602083015250604081019590955260ff939093166060850152608084019190915260a083015260c09091015291905056fea2646970667358221220f738945cea04b54e66a5981f5518f79a350c1a6d4516a3c77d9d10f4c8bc64b264736f6c63430008130033",
    "sourcePath": "f:/Sadaru Kavisha/Semester 7/Fyp/Final Project/App/Client Server/Phoenix_Wallet/server/contract/Node.sol",
    "compiler": {
        "name": "solc",
        "version": "0.8.19+commit.7dd6d404"
    },
    "functionHashes": {
        "acceptInvitation(address)": "9018c818",
        "addMyShares(string[])": "a0cd9ce8",
        "addTemporaryShareHolders(address)": "b9657d13",
        "checkAcceptance()": "ecd63043",
        "checkRequestsForBeAHolder()": "0d2baaa1",
        "checkRequestsForShare()": "0052c632",
        "cleanReleaseAcceptedShareHolders()": "24164bc9",
        "compareOtpHash(string)": "026412c6",
        "deleteSecretOwnerFromList(address)": "375881de",
        "distribute(string,string)": "c0697965",
        "getContractAddressOfPublicAddress(address)": "983080e5",
        "getEmailAddress()": "c4382fa6",
        "getEmailOfUser(string)": "8b5f6b61",
        "getMyShares()": "3e83fe36",
        "getMyState()": "58ce3740",
        "getOtp()": "b9020283",
        "getRejectedShareHolders()": "20a2f735",
        "getRequestedShareHolders()": "dbe4418f",
        "getShareHolders()": "8477d9f3",
        "getUserName()": "12958f1c",
        "isRegistered()": "22366844",
        "isUserNameExist(string)": "0f64dd1b",
        "makingHolderRequests()": "dab0177e",
        "myState()": "8bf1799f",
        "refreshHolderLists()": "22cc8155",
        "refreshState()": "d849e94f",
        "regenerate()": "17377f68",
        "registerToPublicContract(string)": "c692f738",
        "rejectInvitation(address)": "aa8f3075",
        "releaseSecret(address)": "c0befa53",
        "remove(uint256)": "4cc82215",
        "removeShareHolders(address)": "50e78191",
        "requestSharesFromHolders(string,bytes32,uint8,bytes32,bytes32,bytes32)": "e4c3daf7",
        "requestVaultHashOfSecretOwner(string,bytes32,uint8,bytes32,bytes32,bytes32)": "2d685812",
        "returnMyVaultHash()": "57a46079",
        "saveToRegeneratedShares(string)": "d65ec855",
        "saveToReleaseAcceptedShareHolders(address)": "1965a285",
        "setEmail(string)": "282b065a",
        "setEncryptedVault(string)": "042c1c58",
        "setRequester(address)": "227a30c5",
        "takeTheSecretFromTheOwner(address,string)": "4a9ae94a"
    },
    "gasEstimates": {
        "creation": {
            "codeDepositCost": "2544600",
            "executionCost": "infinite",
            "totalCost": "infinite"
        },
        "external": {
            "acceptInvitation(address)": "infinite",
            "addMyShares(string[])": "infinite",
            "addTemporaryShareHolders(address)": "infinite",
            "checkAcceptance()": "infinite",
            "checkRequestsForBeAHolder()": "infinite",
            "checkRequestsForShare()": "infinite",
            "cleanReleaseAcceptedShareHolders()": "infinite",
            "compareOtpHash(string)": "infinite",
            "deleteSecretOwnerFromList(address)": "infinite",
            "distribute(string,string)": "infinite",
            "getContractAddressOfPublicAddress(address)": "infinite",
            "getEmailAddress()": "infinite",
            "getEmailOfUser(string)": "infinite",
            "getMyShares()": "infinite",
            "getMyState()": "infinite",
            "getOtp()": "infinite",
            "getRejectedShareHolders()": "infinite",
            "getRequestedShareHolders()": "infinite",
            "getShareHolders()": "infinite",
            "getUserName()": "infinite",
            "isRegistered()": "infinite",
            "isUserNameExist(string)": "infinite",
            "makingHolderRequests()": "infinite",
            "myState()": "infinite",
            "refreshHolderLists()": "infinite",
            "refreshState()": "infinite",
            "regenerate()": "infinite",
            "registerToPublicContract(string)": "infinite",
            "rejectInvitation(address)": "infinite",
            "releaseSecret(address)": "infinite",
            "remove(uint256)": "81830",
            "removeShareHolders(address)": "infinite",
            "requestSharesFromHolders(string,bytes32,uint8,bytes32,bytes32,bytes32)": "infinite",
            "requestVaultHashOfSecretOwner(string,bytes32,uint8,bytes32,bytes32,bytes32)": "infinite",
            "returnMyVaultHash()": "infinite",
            "saveToRegeneratedShares(string)": "infinite",
            "saveToReleaseAcceptedShareHolders(address)": "infinite",
            "setEmail(string)": "infinite",
            "setEncryptedVault(string)": "infinite",
            "setRequester(address)": "infinite",
            "takeTheSecretFromTheOwner(address,string)": "infinite"
        }
    }
}